:1000000027C05DC23FC03EC03DC03CC03BC03AC0FF
:1000100039C089C237C0FDC235C0EBC233C032C05F
:1000200031C030C02FC05658323231322076312E96
:1000300030302C20436F70797269676874202843D0
:100040002920323030362C204B47344C4E450000AE
:1000500011241FBECFE5D4E0DEBFCDBF10E0A0E687
:10006000B0E0E6E0FAE002C005900D92A037B107DB
:10007000D9F712E0A0E7B0E001C01D92A038B107A7
:10008000E1F701C0BDCFCF93DF93CDB7DEB76E9759
:100090000FB6F894DEBF0FBECDBF198A1A8A1B8A2D
:1000A0001C8ADBD16ED2E6E3F0E080819927807272
:1000B00090701E8A009711F481E08E8B188E1F8A33
:1000C00019C0A8E3B0E0E8E3F0E0808180618C93A0
:1000D00086E990E019D1A8E3B0E0E8E3F0E08081A0
:1000E0008F7E8C9386E990E00FD18F89988D019651
:1000F000988F8F8B8E8999279C012F5F3F4F8F8917
:10010000988D82179307ECF28BE790E09A878987A6
:100110001C861B8680E091E09E878D878D859E855D
:10012000988B8F87AB85BC85E985FA858F85988903
:1001300001971CF054D40192FBCFBC87AB87FA87A0
:10014000E987988B8F878AE090E0DED051D1A6D1E5
:1001500000C089899A89AB89BC890196A11DB11D0E
:10016000898B9A8BAB8BBC8B89899A89AB89BC892B
:10017000803221EA920727E0A20720E0B20761F46B
:10018000A8E3B0E0E8E3F0E0908180E189278C9378
:10019000198A1A8A1B8A1C8AE0E3F0E08081992779
:1001A000847090700097D1F4E3E3F0E08081982FA1
:1001B0009F73E6E3F0E080818295880F880F807C52
:1001C000890F8D8BA2E3B0E08D899927FC01E5585A
:1001D000FF4F80818295807F8C93BBCF8091700090
:1001E000882309F4B6CF86E0E2D1A8E3B0E0E8E3E3
:1001F000F0E080818F7E8C938BE790E09A8F898FDF
:10020000E0E8F1E0FC8FEB8F80E091E09E8F8D8F36
:10021000EB8DFC8D00808B8D9C8D01969C8F8B8F40
:10022000E98DFA8D0082898D9A8D01969A8F898F3A
:10023000ED8DFE8D3197FE8FED8F8D8D9E8D00970C
:1002400039F7188E1F8A16C02F89388D8F89988D9F
:10025000FC01E558FF4F80819927FC01E05AFF4FD0
:100260008081F901E558FF4F80838F89988D019631
:10027000988F8F8B8F89988D8F3F910529F324F369
:100280008BE790E09A8389831C821B8280E091E057
:100290009E838D838D819E8198878F83AB81BC8166
:1002A000E981FA818F81988501971CF001909FD395
:1002B000FBCFBC83AB83FA83E98398878F83188E47
:1002C0001F8A19C0A8E3B0E0E8E3F0E08081806114
:1002D0008C9384E690E018D0A8E3B0E0E8E3F0E087
:1002E00080818F7E8C9384E690E00ED08F89988DEC
:1002F0000196988F8F8B8F89988D8530910514F397
:1003000077D01092700025CFCF93DF93CDB7DEB7B3
:1003100026970FB6F894DEBF0FBECDBF9E838D83A8
:100320001C821B820FC086E69EE09A8389838981A6
:100330009A810197F1F79A8389838B819C81019639
:100340009C838B832B813C818D819E81281739076B
:1003500050F326960FB6F894DEBF0FBECDBFDF91E7
:10036000CF910895CF93DF93CDB7DEB726970FB621
:10037000F894DEBF0FBECDBF9E838D838D819E819D
:10038000039623E030E0B90116D3CB019C0144274A
:100390005527DA01C901880F991FAA1FBB1F880FB3
:1003A000991FAA1FBB1F880F991FAA1FBB1F880F69
:1003B000991FAA1FBB1F821B930BA40BB50B9C8319
:1003C0008B838B819C8196958795969587959A834B
:1003D000898389819A810197F1F79A838983269687
:1003E0000FB6F894DEBF0FBECDBFDF91CF91089559
:1003F000CF93DF93CDB7DEB724970FB6F894DEBF67
:100400000FBECDBFA8E3B0E0E8E3F0E080818460F8
:100410008C9384EF91E09C838B838B819C810197EB
:10042000F1F79C838B83A8E3B0E0E8E3F0E0808100
:100430008B7F8C9384EF91E09A83898389819A8161
:100440000197F1F79A83898324960FB6F894DEBF5B
:100450000FBECDBFDF91CF910895CF93DF93CDB77E
:10046000DEB7E5E3F0E01082E4E3F0E01082E2E3DF
:10047000F0E01082E1E3F0E01082E1E3F0E082EFEF
:100480008083E8E3F0E01082E7E3F0E01082E7E346
:10049000F0E08CE18083DF91CF910895CF93DF93DB
:1004A000CDB7DEB7F894E5E5F0E081E08083EBE5D9
:1004B000F0E080E480837894DF91CF9108951F92DB
:1004C0000F920FB60F9211248F939F93AF93BF9308
:1004D000EF93FF93CF93DF93CDB7DEB7E0E3F0E088
:1004E0008081992784709070009749F0A1E3B0E073
:1004F000E1E3F0E090818FE089238C9307C0A1E3D2
:10050000B0E0E1E3F0E08081806F8C93DF91CF91E8
:10051000FF91EF91BF91AF919F918F910F900FBE7F
:100520000F901F9018951F920F920FB60F921124E3
:100530008F939F93EF93FF93CF93DF93CDB7DEB766
:100540002297DEBFCDBF80EF90E09A838983ECE4F1
:10055000F0E089818083EDE4F0E089819A81892F40
:10056000992780832296F894DEBFCDBFDF91CF918B
:10057000FF91EF919F918F910F900FBE0F901F9061
:100580001895CF93DF93CDB7DEB7E0E4F0E01082AB
:10059000E9E2F0E08FE58083EAE2F0E088E9808339
:1005A000E0E4F0E086E88083DF91CF910895CF9377
:1005B000DF93CDB7DEB721970FB6F894DEBF0FBE3D
:1005C000CDBF8983EBE2F0E0808199278072907043
:1005D0000097C1F3ECE2F0E08981808380E090E055
:1005E00021960FB6F894DEBF0FBECDBFDF91CF913D
:1005F00008951F920F920FB60F921124CF93DF939D
:10060000CDB7DEB7DF91CF910F900FBE0F901F9047
:1006100018951F920F920FB60F9211242F933F93AC
:100620004F935F936F937F938F939F93AF93BF93FA
:10063000EF93FF93CF93DF93CDB7DEB72497DEBF61
:10064000CDBFEBE2F0E080818983ECE2F0E08081D5
:100650008A83898199278C719070009739F08091F5
:1006600074009981892B8093740056C1A8E3B0E08F
:10067000E8E3F0E0908180E189278C93809171001C
:10068000282F33273C832B838B819C8184309105D9
:1006900009F4A1C02B813C8125303105ECF48B811C
:1006A0009C818130910509F456C02B813C81223018
:1006B00031052CF48B819C81009799F11CC12B8111
:1006C0003C812230310509F457C08B819C818330F5
:1006D000910509F46FC00FC12B813C812730310592
:1006E00009F4D4C08B819C81883091056CF42B81F6
:1006F0003C812530310509F4A6C08B819C81863070
:10070000910509F4B1C0F7C02B813C812830310537
:1007100009F4E1C08B819C818930910509F4E2C024
:10072000EAC08A818E3219F482E041DFE6C08A8114
:10073000813071F410927300109272001092770061
:10074000109276001092750081E080937100D5C000
:1007500085E12DDFD2C08A8180937B018091760074
:10076000909177006A81EFD0909377008093760024
:1007700082E080937100C1C080917B01282F3327D4
:100780008A8199278095909590702817390771F480
:1007900080917600909177006A81D5D09093770010
:1007A0008093760083E080937100A7C081EF8093EF
:1007B0007500A3C08A8180937D018091760090911D
:1007C00077006A81C0D0909377008093760084E0B0
:1007D0008093710092C080917D01282F33278A81F8
:1007E00099278095909590702817390741F5809149
:1007F0007600909177006A81A6D0909377008093DD
:10080000760080917B019927382F222780917D01E6
:100810009927822B932B9093790080937800809175
:1008200078009091790021E08130920720F485E0F2
:100830008093710062C082EF809375005EC083EF89
:10084000809375005AC08A8180937C0180917600E4
:10085000909177006A8177D09093770080937600AB
:1008600086E08093710049C080917E0180937C0175
:1008700080917600909177006A8165D0909377009F
:100880008093760087E08093710037C08091760076
:10089000909177006A8157D090937700809376008B
:1008A0002091720030917300F901E058FE4F8A8167
:1008B0008083C901019690937300809372008091A8
:1008C0007200909173008F3F9105B9F0B0F088E00D
:1008D0008093710012C08A8180937A0089E08093AE
:1008E00071000BC08A8180937F0181E0809370004A
:1008F0001092710002C010927100809175008823DF
:1009000059F085E154DE8091750051DE109275003A
:1009100080917500809371002496F894DEBFCDBF5E
:10092000DF91CF91FF91EF91BF91AF919F918F9107
:100930007F916F915F914F913F912F910F900FBEDB
:100940000F901F901895CF93DF93CDB7DEB7279701
:100950000FB6F894DEBF0FBECDBF9E838D836F832D
:100960002F818D819E819227092E0294202D2F7038
:100970002927392F3025330F307E2327302D392773
:10098000307F3695092E000C331F969596959695D7
:100990009F7193279827822F9C838B832A83398387
:1009A0008B819C8127960FB6F894DEBF0FBECDBF1A
:1009B000DF91CF910895AA1BBB1B51E107C0AA1F6D
:1009C000BB1FA617B70710F0A61BB70B881F991FF0
:1009D0005A95A9F780959095BC01CD010895E199AC
:1009E000FECFBFBBAEBBE09A11960DB20895E19960
:1009F000FECFBFBBAEBB0DBA11960FB6F894E29A0C
:060A0000E19A0FBE08950B
:100A06000008040C020A060E0109050D030B070F68
:00000001FF
