:1000000027C0AAC03FC03EC03DC03CC03BC03AC0B4
:1000100039C0BCC037C079C436C42BC433C032C069
:1000200031C030C02FC05658323231322076312E96
:1000300030302C20436F70797269676874202843D0
:100040002920323030372C204B47344C4E450000AD
:1000500011241FBECFE5D4E0DEBFCDBF10E0A0E687
:10006000B0E0EAE1FBE002C005900D92A037B107D5
:10007000D9F713E0A0E7B0E001C01D92A23BB107A1
:10008000E1F723C3BDCFC29A84EF91E00197F1F766
:10009000C2980895DC0140E050E01EC0C49A20E000
:1000A00030E0E6E6FEE005C0CF010197F1F72F5FF3
:1000B0003F4F26173707C1F7C49820E030E0E6E647
:1000C000FEE005C0CF010197F1F72F5F3F4F2617E4
:1000D0003707C1F74F5F5F4F4A175B07F9F608957F
:1000E00015BA14BA12BA11BA82EF81BB18BA17BA8C
:1000F0008CE187BB0895F89481E085BF80E48BBFD5
:1001000078940895AC0120E030E0E6E6FEE005C01A
:10011000CF010197F1F72F5F3F4F24173507C1F744
:100120000895039663E070E0D0D4882799279B0157
:10013000AC01E4E0220F331F441F551FEA95D1F7AD
:10014000261B370B480B590B369527953695279567
:10015000C9010197F1F708951F920F920FB60F9200
:1001600011248F93829B06C081B38F7081BB109244
:10017000700006C081B3806F81BB81E08093700006
:100180008F910F900FBE0F901F9018951F920F9296
:100190000FB60F9211248F9380EF8CBD1DBC8F91F1
:1001A0000F900FBE0F901F9018956F927F928F92B5
:1001B0009F92BF92CF92DF92EF92FF920F931F9385
:1001C000CF93DF93B82EE62E3A01490181E04BD35D
:1001D000C401B4E096958795BA95E1F7AFEFCA2EC2
:1001E000D12CC820D92000E010E01827012E02945D
:1001F000302D3F703127212F2025220F207E3227DE
:10020000202D2127207F2695012E000C221F1695D8
:10021000169516951F7112271027032F24D31C251E
:10022000012E0294902D9F709127812F8025880F99
:10023000807E9827802D8127807F8695012E000C57
:10024000881F1695169516951F7118271027092FC8
:100250008C2D09D30B2D112798013C25032E0294D8
:10026000902D9F709327832F8025880F807E98275D
:10027000802D8327807F8695032E000C881F36955E
:10028000369536953F7138273227292F8B2DEBD2A3
:10029000E801DE250D2E0294902D9F709D278D2F55
:1002A0008025880F807E9827802D8D27807F8695DA
:1002B0000D2E000C881FD695D695D695DF71D827C0
:1002C000DC27C92F8E2DCFD26114710409F42AC006
:1002D0008114910409F426C000E010E073011FC0EE
:1002E000F70181917F01D8270D2E0294202D2F70C8
:1002F0002D279D2F9025990F907E2927902D9D27A2
:10030000907F96950D2E000C991FD695D695D69573
:10031000DF71D927DC27C22FA6D20F5F1F4F081528
:100320001905F1F6CE01F4E096958795FA95E1F777
:100330009AD28C2F98D280E090E0DF91CF911F91DC
:100340000F91FF90EF90DF90CF90BF909F908F9094
:100350007F906F9008958F929F92BF92CF92DF927D
:10036000EF92FF920F931F93CF93DF9384EF91E06F
:1003700017D32FEF8F3F920719F481E090E099C1D6
:10038000019719F082E090E094C184E690E008D3F0
:100390007C018F5F9F4F19F483E090E08AC180E079
:1003A00090E0EC01DE250D2E0294902D9F709D278C
:1003B0008D2F8025880F807E9827802D8D27807F28
:1003C00086950D2E000C881FD695D695D695DF7193
:1003D000D827DC27C92F84E690E0E2D28C015FEFBA
:1003E0008F3F950719F484E090E063C1D8270D2E64
:1003F0000294902D9F709D278D2F8025880F807EE1
:100400009827802D8D27807F86950D2E000C881FC4
:10041000D695D695D695DF71D827DC27C92F84E6E7
:1004200090E0BED2AFEF8F3F9A0719F485E090E0DD
:1004300040C1B82ED8270D2E0294902D9F709D2775
:100440008D2F8025880F807E9827802D8D27807F97
:1004500086950D2E000C881FD695D695D695DF7102
:10046000D827DC27C92F84E690E09AD2BFEF8F3FD0
:100470009B0719F486E090E01CC1FE2CEE24E02AD4
:10048000F12A182FD8270D2E0294902D9F709D27AA
:100490008D2F8025880F807E9827802D8D27807F47
:1004A00086950D2E000C881FD695D695D695DF71B2
:1004B000D827DC27C92FE1E0EE16E1E0FE0618F0B0
:1004C00087E090E0F6C0CC24DD2492EB892E92E008
:1004D000992E28C084E690E063D29C01FFEF8F3F05
:1004E0009F0709F4C1C0D8270D2E0294902D9F704C
:1004F0009D278D2F8025880F807E9827802D8D2722
:10050000807F86950D2E000C881FD695D695D695A2
:10051000DF71D827DC27C92FD4012D934D01089412
:10052000C11CD11CCE14DF0409F0D4CF20E0CE01D1
:100530009227092E0294402D4F704927392F3025DC
:10054000330F307E4327302D3927307F3695092EE3
:10055000000C331F9695969596959F719327982733
:10056000842FEC01D2270D2E0294902D9F709D2791
:100570008D2F8025880F807E9827802D8D27807F66
:1005800086950D2E000C881FD695D695D695DF71D1
:10059000D827DC27C92F84E690E002D24C018F5F78
:1005A0009F4F19F489E090E084C084E690E0F8D190
:1005B0007C018F5F9F4F19F48AE090E07AC0982DFC
:1005C00088278E299F29C817D90711F085E12CC0EB
:1005D000612F61708B2D99278F70907081309105FC
:1005E00021F0029709F443C062C0A2EBB2E0EC91A3
:1005F000FF27EF70F070E05AFF4F80818D9323E06A
:10060000A23BB207A1F7862F9927F82FEE27EE54C9
:10061000FF4FA2EBB2E080E091E00D9001920197D4
:10062000E1F7B7FE07C086E01ED1882D1CD18E2DC4
:100630001AD13DC0E2EBF0E020E032E0E901DC015C
:1006400021971CF001905DD2FBCF86E00CD1882D64
:100650000AD18E2D08D16BE470E082E090E01ADDC3
:1006600012DD8FEF9FEF25C088E090E022C0862F3B
:100670009927F82FEE27A2EBB2E0EE54FF4F80E06F
:1006800091E001900D920197E1F7A2EBB2E0EC91BD
:10069000FF27E05AFF4F80818D93E3E0A23BBE0726
:1006A000B1F720E031E042EB52E082E07EDD80E015
:1006B00090E0DF91CF911F910F91FF90EF90DF902D
:1006C000CF90BF909F908F900895EF92FF920F93DD
:1006D0001F93CF93DF9304DD5ED08CE3C4D016B3B9
:1006E00012951695177010951170812F992766E94C
:1006F00070E00196CFDCA0E0B0E0E2EBF0E080E05B
:1007000092E001971CF0F5D10192FBCFBCDCF8948C
:1007100081E085BF80E48BBF7894112319F0C0E09D
:10072000D1E002C0C0E0D0E0EE24FF24870182992E
:1007300013C0C49AE3B386B3EF738295880F880F12
:10074000807CE80FFF27EE54FF4FEC0FFD1F8081E8
:100750008295807F82BBEBCF0894E11CF11C011DC8
:10076000111D80E9E81680EDF80683E0080780E0B7
:10077000180739F488B390E1892788BBEE24FF2459
:10078000870129D08E9799F6C49882E06CD0E3DD7A
:10079000892B69F6FCCF10BC8FE589B988E98AB945
:1007A00086E880BD109293001092920010929500FE
:1007B0001092940010929700109296001092A90047
:1007C0001092A8001092AB001092AA001092AD00F7
:1007D0001092AC0008952091920030919300809186
:1007E0009400909195002817390719F48FEF9FEF27
:1007F0000895F901EE58FF4F4081F901319680913B
:10080000960090919700019790939700809396009F
:10081000E032F10510F0E0E0F0E0842F9927F0934A
:100820009300E09392000895EF92FF920F931F932D
:10083000CF93DF937B018C01C0E0D0E009C0CBDF18
:100840002FEF8F3F920739F0F80181938F012196A6
:10085000CE15DF05A1F7CE01DF91CF911F910F914A
:10086000FF90EF9008955D9BFECF8CB980E090E003
:1008700008951F920F920FB60F9211240F900FBE82
:100880000F901F9018951F920F920FB60F92112480
:100890002F933F934F938F939F93EF93FF932091C9
:1008A000A8003091A9008091AA009091AB00281770
:1008B000390731F455981092AD001092AC0019C070
:1008C000F901EE58FF4F46A1F90131968091AC0035
:1008D0009091AD0001979093AD008093AC00E03112
:1008E000F10510F0E0E0F0E0F093A900E093A8003B
:1008F0004CB9FF91EF919F918F914F913F912F9123
:100900000F900FBE0F901F9018951F920F920FB669
:100910000F9211242F933F938F939F93EF93FF9305
:100920009BB12CB1892F8C7131F08091B000892B53
:100930008093B0002AC08091940090919500FC01B2
:10094000EE58FF4F20839C012F5F3F4F203231052F
:1009500010F020E030E080919200909193002817F1
:10096000390731F48091AF0082608093AF000DC0F1
:100970003093950020939400809196009091970079
:1009800001969093970080939600FF91EF919F912D
:100990008F913F912F910F900FBE0F901F90189540
:1009A0000F931F93CF93DF938C01892B19F0C0E035
:1009B000D0E00BC010DF0EC00EDF2FEF8F3F92078D
:1009C00049F48AE090E09EDB2196C017D107A4F39A
:1009D0008FEF9FEFDF91CF911F910F910895CF92ED
:1009E000DF92EF92FF920F931F93CF93DF936C01EF
:1009F0008B01FB011082EB01EE24FF24C601D0DF46
:100A0000FFEF8F3F9F0719F4EE24FF2415C08D30B0
:100A1000910551F08A30910529F40E0D1F1DF80142
:100A200010820AC0888319820894E11CF11C219667
:100A3000FFE3EF16F10411F7C701DF91CF911F918A
:100A40000F91FF90EF90DF90CF90089520E030E07D
:100A5000FC0107C080815D9BFECF8CB92F5F3F4FAB
:100A6000319626173707B1F780E090E00895EF92AE
:100A7000FF920F931F93CF93DF938C01EE24FF24FB
:100A8000EC0111C088818E3531F40894E11CF11C11
:100A90002196888180545D9BFECF8CB99CDE0894A2
:100AA000E11CF11C2196F80101900020E9F7319733
:100AB000E01BF10BEE16FF0628F3C701DF91CF9183
:100AC0001F910F91FF90EF900895AA1BBB1B51E15E
:100AD00007C0AA1FBB1FA617B70710F0A61BB70BAE
:100AE000881F991F5A95A9F780959095BC01CD0153
:100AF0000895E199FECFBFBBAEBBE09A11960DB24F
:100B00000895E199FECFBFBBAEBB0DBA11960FB6EB
:0A0B1000F894E29AE19A0FBE0895EE
:100B1A000008040C020A060E0109050D030B070F53
:00000001FF
