:1000000029C0BDC042C041C040C03FC03EC03DC08D
:100010003CC0CFC03AC0B2C46FC464C436C035C09F
:1000200034C033C032C05658323231322076312E8D
:1000300030302C20436F70797269676874202843D0
:100040002920323030372D323030392C204B473494
:100050004C4E450011241FBECFE5D4E0DEBFCDBF1E
:1000600010E0A0E6B0E0E0EAFCE002C005900D92EE
:10007000A037B107D9F713E0A0E7B0E001C01D92A7
:10008000A23BB107E1F724D309C6BACF9C01E1999D
:10009000FECF3FBB2EBBE09A8DB308959C01E19942
:1000A000FECF3FBB2EBB6DBB0FB6F894E29AE19A30
:1000B0000FBE0895C29A84EF91E00197F1F7C298BC
:1000C000089540E050E0A6E6BEE01AC0C49A20E0E1
:1000D00030E005C0FD013197F1F72F5F3F4F261744
:1000E0003707C0F3C49820E030E005C0FD01319728
:1000F000F1F72F5F3F4F26173707C0F34F5F5F4F72
:100100004817590718F3089515BA14BA12BA11BA54
:1001100082EF81BB18BA17BA8CE187BB0895F894B7
:1001200081E085BF80E48BBF7894089520E030E0C3
:1001300046E65EE005C0FA013197F1F72F5F3F4FC9
:1001400028173907C0F30895039663E070E05BD584
:1001500080E090E09B01AC01E4E0220F331F441FDC
:10016000551FEA95D1F7261B370B480B590BC901D0
:1001700096958795969587950197F1F708951F9223
:100180000F920FB60F9211248F93829B06C081B3FA
:100190008F7081BB1092700006C081B3806F81BBED
:1001A00081E0809370008F910F900FBE0F901F9091
:1001B00018951F920F920FB60F9211248F9380EF14
:1001C0008CBD1DBC8F910F900FBE0F901F90189586
:1001D0008F929F92AF92BF92DF92EF92FF920F9316
:1001E0001F93CF93DF93E82ED62E4A01590181E069
:1001F00061D3C501A4E096958795AA95E1F7C0E083
:10020000D0E0D8270D2E0294902D9F709D272D2F82
:100210002025220F207E9227202D2D27207F269516
:100220000D2E000C221FD695D695D695DF71D227BC
:10023000DC27C92F3FD3C5019070F82ED8270D2E8B
:100240000294902D9F709D272D2F2025220F207E18
:100250009227202D2D27207F26950D2E000C221F62
:10026000D695D695D695DF71D227DC27C92F22D314
:100270000E2D10E0C8019F25092E0294202D2F700D
:100280002927392F3025330F307E2327302D39276A
:10029000307F3695092E000C331F969596959695CE
:1002A0009F7193279827822F8E2D04D31D25012E11
:1002B0000294802D8F708127912F9025990F907E29
:1002C0008927902D9127907F9695012E000C991FDC
:1002D0001695169516951F7119271027082F8D2D25
:1002E000E9D28114910409F429C0A114B10409F4DC
:1002F00025C0C0E0D0E01FC0F401EC0FFD1F8081DD
:100300001827012E0294902D9F709127212F2025D0
:10031000220F207E9227202D2127207F2695012E37
:10032000000C221F1695169516951F71122710277F
:10033000092FC0D22196CA15DB05F0F2C801F4E0FE
:1003400096958795FA95E1F7B5D2802FB3D280E0E4
:1003500090E0DF91CF911F910F91FF90EF90DF9090
:10036000BF90AF909F908F900895CF92DF92EF92C1
:10037000FF920F931F93CF93DF9384EF91E08FD37E
:100380002FEF8F3F920719F421E030E097C10197DA
:1003900019F022E030E092C184E690E080D37C0145
:1003A0004FEF8F3F940719F423E030E087C1C0E09E
:1003B000D0E0D8270D2E0294802D8F708D279D2F91
:1003C0009025990F907E8927902D9D27907F969557
:1003D0000D2E000C991FD695D695D695DF71D9278D
:1003E000DC27C82F84E690E05AD38C015FEF8F3F63
:1003F000950719F424E030E061C1D8270D2E02944E
:10040000802D8F708D279D2F9025990F907E8927A5
:10041000902D9D27907F96950D2E000C991FD695B7
:10042000D695D695DF71D927DC27C82F84E690E0D2
:1004300036D32FEF8F3F920719F425E030E03EC10D
:10044000D82ED8270D2E0294802D8F708D279D2FAA
:100450009025990F907E8927902D9D27907F9695C6
:100460000D2E000C991FD695D695D695DF71D927FC
:10047000DC27C82F84E690E012D34FEF8F3F94071C
:1004800019F426E030E01AC1FE2CEE24E02AF12A0D
:10049000C82ED8270D2E0294802D8F708D279D2F6A
:1004A0009025990F907E8927902D9D27907F969576
:1004B0000D2E000C991FD695D695D695DF71D927AC
:1004C000DC27C82F51E0E51651E0F50618F027E0CB
:1004D00030E0F4C000E010E029C084E690E0DFD214
:1004E0002FEF8F3F920719F428E030E0E7C0D827BC
:1004F0000D2E0294202D2F702D273D2F3025330FE8
:10050000307E2327302D3D27307F36950D2E000C71
:10051000331FD695D695D695DF71D327DC27C22F0A
:10052000F801EE54FD4F80830F5F1F4F0E151F051E
:1005300008F4D3CF20E0CE019227092E0294302D6B
:100540003F703927492F4025440F407E3427402DE6
:100550004927407F4695092E000C441F9695969595
:1005600096959F7194279827832FAC015227052ECB
:100570000294802D8F708527952F9025990F907E5E
:100580008927902D9527907F9695052E000C991F11
:100590005695569556955F7159275427482F7A01DD
:1005A00084E690E07CD28C015FEF8F3F950719F4D1
:1005B00029E030E083C084E690E071D2EC018FEF57
:1005C000CF3FD80719F42AE030E078C0902F882771
:1005D0008C2B9D2BE816F90611F085E12BC06C2DB4
:1005E00061708D2D90E08F7090708130910521F0B9
:1005F000029709F061C041C0A2EBB2E0EC91F0E0DB
:10060000EF70F070E05AFF4F80818D9323E0A23BA2
:10061000B207A1F7962F80E0DC01AE54BF4FE2EBAA
:10062000F2E080E091E001900D920197E1F7D7FEB2
:1006300007C086E03FD1802F3DD18C2F3BD13CC0FD
:1006400080E090E062EB70E040E052E02EE430E0C9
:10065000C0D286E02FD1802F2DD18C2F2BD182E0DC
:1006600090E06BE470E02DDDC29A84EF91E0019799
:10067000F1F7C2982FEF3FEF21C0962F80E0A2EB59
:10068000B2E0FC01EE54FF4F80E091E001900D924A
:100690000197E1F7A2EBB2E0EC91F0E0E05AFF4FF6
:1006A00080818D9343E0A23BB407B1F782E042EB37
:1006B00052E020E031E08CDD20E030E0C901DF9144
:1006C000CF911F910F91FF90EF90DF90CF90089501
:1006D000DF92EF92FF920F931F93CF93DF9315BAA0
:1006E00014BA12BA11BA82EF81BB18BA17BA8CE1E8
:1006F00087BB63D08CE3DED016B3129516951770C6
:1007000010951170812F90E0019666E970E0D9DCB8
:1007100082EB90E060E070E040E052E026E430E000
:100720003ED2C29A84EF91E00197F1F7C298F89413
:1007300081E085BF80E48BBF7894112319F480E0B9
:1007400090E002C080E091E0EE24FF248701EC01FC
:10075000CE54DF4F20E1D22E829911C0C49A93B3B8
:1007600086B38295880F880F807C9F73890FFE0166
:10077000E80FF11D80818295807F82BBEDCF0894C8
:10078000E11CF11C011D111D80E9E81680EDF80641
:1007900083E0080780E0180731F488B38D2588BB13
:1007A000EE24FF24870129D08E97B1F6C49882E009
:1007B00081D0DBDD892BE9F3CFCF10BC8FE589B980
:1007C00088E98AB986E880BD109293001092920061
:1007D000109295001092940010929700109296003B
:1007E0001092A9001092A8001092AB001092AA00DB
:1007F0001092AD001092AC000895209192003091BB
:10080000930080919400909195002817390719F46E
:10081000EFEFFFEF19C0F901EE58FF4FE0812F5FB6
:100820003F4F809196009091970001979093970089
:10083000809396002032310510F020E030E0F0E0A7
:100840003093930020939200CF010895CF93DF93CC
:10085000EB01DC0140E050E026C020919200309195
:100860009300809194009091950028173907F1F03A
:10087000F901EE58FF4F6081F901319680919600A1
:100880009091970001979093970080939600E032A3
:10089000F10510F0E0E0F0E0F0939300E0939200B7
:1008A0006D934F5F5F4F4C175D07B8F2CA01DF9140
:1008B000CF9108955D9BFECF8CB980E090E00895C4
:1008C00020E030E009C0FC01E20FF31FE0815D9BF6
:1008D000FECFECB92F5F3F4F26173707A0F380E01C
:1008E00090E008951F920F920FB60F9211240F906F
:1008F0000FBE0F901F9018951F920F920FB60F9278
:1009000011242F933F934F938F939F93EF93FF93D4
:100910002091A8003091A9008091AA009091AB008D
:100920002817390731F455981092AD001092AC0099
:1009300019C0F901EE58FF4F46A1F9013196809197
:10094000AC009091AD0001979093AD008093AC0006
:10095000E031F10510F0E0E0F0E0F093A900E09361
:10096000A8004CB9FF91EF919F918F914F913F91CA
:100970002F910F900FBE0F901F9018951F920F92FE
:100980000FB60F9211242F933F938F939F93EF9362
:10099000FF939BB12CB1892F8C7131F08091B00005
:1009A000892B8093B0002AC080919400909195008B
:1009B000FC01EE58FF4F20839C012F5F3F4F2032F8
:1009C000310510F020E030E080919200909193008A
:1009D0002817390731F48091AF0082608093AF000F
:1009E0000DC03093950020939400809196009091D3
:1009F000970001969093970080939600FF91EF9156
:100A00009F918F913F912F910F900FBE0F901F904C
:100A10001895CF93DF93BC01C0919400D0919500BD
:100A200040E050E02EC0FB01E40FF51FE081EE3501
:100A300039F44F5F5F4FFB01E40FF51FE081E05495
:100A40005D9BFECFECB980919200909193008C1742
:100A50009D07A9F09C012F5F3F4F809196009091D8
:100A6000970001979093970080939600203231056C
:100A700010F020E030E030939300209392004F5F1D
:100A80005F4FFB0101900020E9F73197E61BF70B60
:100A90004E175F0740F2CA01DF91CF9108950F937F
:100AA0001F93CF93DF938C01009719F0C0E0D0E043
:100AB00035C02091920030919300809194009091E4
:100AC00095002817390761F42CC0209192003091CD
:100AD0009300809194009091950028173907D1F0E8
:100AE000F901EE58FF4FE0812F5F3F4F8091960054
:100AF00090919700019790939700809396002032F1
:100B0000310510F020E030E0F0E0309393002093C6
:100B1000920009C08AE090E009DB2196C017D10756
:100B2000A4F2EFEFFFEFCF01DF91CF911F910F9173
:100B30000895CF92DF92EF92FF920F931F93CF937E
:100B4000DF936C017B01FB0110828B01C0E0D0E0E0
:100B5000C601A5DFFFEF8F3F9F0719F4C0E0D0E08B
:100B600014C08D30910559F08A30910529F4EC0EAE
:100B7000FD1EF701108209C0F801808311822196C1
:100B80000F5F1F4FCF33D10519F7CE01DF91CF9102
:100B90001F910F91FF90EF90DF90CF900895A0E00C
:100BA000B0E0E4EDF5E04DC07C01EB018A016901A4
:100BB00009C0CE012196F6010995F70181937F01C5
:100BC0000150104001151105A1F7CDB7DEB7E8E0DF
:100BD00054C0A0E0B0E0EEEEF5E033C0EC017B01E4
:100BE0008A01690109C0CE012196F70161917F0157
:100BF000F60109950150104001151105A1F7CDB777
:100C0000DEB7E8E03AC0AA1BBB1B51E107C0AA1F30
:100C1000BB1FA617B70710F0A61BB70B881F991F9D
:100C20005A95A9F780959095BC01CD0108952F9212
:100C30003F924F925F926F927F928F929F92AF926C
:100C4000BF92CF92DF92EF92FF920F931F93CF93B9
:100C5000DF93CDB7DEB7CA1BDB0B0FB6F894DEBF50
:100C60000FBECDBF09942A88398848885F846E8476
:100C70007D848C849B84AA84B984C884DF80EE80C0
:100C8000FD800C811B81AA81B981CE0FD11D0FB6C9
:100C9000F894DEBF0FBECDBFED010895F894FFCFED
:100CA0000008040C020A060E0109050D030B070FCC
:00000001FF
